:020000040800F2
:100000007020002091090008F1090008F10900089A
:10001000F1090008F1090008F109000800000000DA
:10002000000000000000000000000000F1090008CE
:10003000F109000800000000F1090008FD26000891
:100040000927000815270008212700082D27000888
:10005000712800087D2800088928000895280008D4
:10006000A1280008AD280008B9280008F1090008F7
:10007000F1090008F1090008F1090008F109000878
:10008000F1090008F1090008F1090008F109000868
:10009000F1090008F1090008F1090008C528000865
:1000A000C52B0008D12B0008F12B0008FD2B000800
:1000B000092C00085D2C0008412D0008212E0008A5
:1000C0002D2E0008392E0008452E0008512E00085C
:1000D0005D2E0008692E0008752E0008812E00088C
:1000E0008D2E0008D52E0008ED2E0008000000001F
:1000F0000000000000000000000000000000000000
:1001000000000000000000005FF808F180B483B038
:1001100000AF02460B46FA807B717B79002B08D03A
:100120000B4B0B4A128891B2FA880A4392B21A809A
:1001300009E0074B064A128891B2FA88D24392B27C
:100140000A4092B21A800C37BD465DF8047B7047B6
:100150000028004080B400AF054B054A928892B257
:1001600042F0100292B29A80BD465DF8047B70475F
:100170000028004080B400AF054B054A928892B237
:1001800022F0100292B29A80BD465DF8047B70475F
:100190000028004080B483B000AF0023FB80074BF1
:1001A0009B8BFB80054B1B8B9BB21A04FB88134374
:1001B00018460C37BD465DF8047B704700280040A8
:1001C00080B582B000AF7860FFF7C4FF064B7A6855
:1001D000120C92B21A83044B7A6892B29A83FFF798
:1001E000C9FF0837BD4680BD0028004080B582B0F9
:1001F00000AF7860FFF7AEFF074B7A6802F4702219
:10020000120C92B21A81044B7A6892B29A81FFF76B
:10021000B1FF0837BD4680BD0028004080B400AF64
:1002200000BF054B9B889BB203F02003002BF8D046
:10023000BD465DF8047B70470028004080B400AFE5
:10024000094B094A928892B222F0080292B29A802F
:1002500000BF054B9B889BB203F00803002BF8D02E
:10026000BD465DF8047B70470028004080B485B02F
:1002700000AF0346FB800023FB730F4B9B889BB2B0
:10028000DAB2FB88DBB21340FB730B4B1B889AB2CC
:10029000FB8813409BB2002B05D0FB7B002B02D0C8
:1002A0000123FB7301E00023FB73FB7B184614372B
:1002B000BD465DF8047B70470028004080B483B0E1
:1002C00000AF0346FB80074B064A928891B2FA883A
:1002D000D24392B20A4092B29A800C37BD465DF882
:1002E000047B70470028004080B582B000AF786082
:1002F0007A68784B9A420AD14FF40060012101F0EC
:1003000063FD4FF40060002101F05EFDDEE07B68DC
:10031000B3F1804F08D10120012101F073FD0120CC
:10032000002101F06FFDD1E07A686B4B9A4208D151
:100330000220012101F066FD0220002101F062FD92
:10034000C4E07A68654B9A4208D10420012101F08B
:1003500059FD0420002101F055FDB7E07A68604B9B
:100360009A4208D10820012101F04CFD082000210B
:1003700001F048FDAAE07A685A4B9A4208D1102051
:10038000012101F03FFD1020002101F03BFD9DE027
:100390007A68554B9A4208D12020012101F032FDA4
:1003A0002020002101F02EFD90E07A684F4B9A4208
:1003B0000AD14FF40050012101F006FD4FF4005026
:1003C000002101F001FD81E07A68494B9A420AD18F
:1003D0004FF40020012101F0F7FC4FF40020002130
:1003E00001F0F2FC72E07A68424B9A420AD14FF473
:1003F0008010012101F0E8FC4FF48010002101F091
:10040000E3FC63E07A683C4B9A420AD14FF4001057
:10041000012101F0D9FC4FF40010002101F0D4FCBF
:1004200054E07A68354B9A4208D14020012101F00E
:10043000E9FC4020002101F0E5FC47E07A68304B00
:100440009A4208D18020012101F0DCFC80200021AB
:1004500001F0D8FC3AE07A682A4B9A420AD14FF46C
:100460008070012101F0CEFC4FF48070002101F07A
:10047000C9FC2BE07A68244B9A420AD14FF48030B1
:10048000012101F0A1FC4FF48030002101F09CFC1F
:100490001CE07A681D4B9A420AD14FF400300121CA
:1004A00001F092FC4FF40030002101F08DFC0DE0D2
:1004B0007A68174B9A4209D14FF48020012101F04C
:1004C00083FC4FF48020002101F07EFC0837BD46FC
:1004D00080BD00BF002C0140000400400008004027
:1004E000000C0040001000400014004000340140A7
:1004F000004C0140005001400054014000180040F1
:10050000001C004000200040004001400044014029
:100510000048014080B485B000AF786039600023A6
:10052000FB817B681B88FB817A682E4B9A4213D033
:100530007A682D4B9A420FD07B68B3F1804F0BD075
:100540007A682A4B9A4207D07A68294B9A4203D09C
:100550007A68284B9A4208D1FB8923F07003FB810B
:100560003B685A88FB891343FB817A68224B9A4285
:100570000CD07A68214B9A4208D0FB8923F440734F
:10058000FB813B68DA88FB891343FB817B68FA892E
:100590001A803B689A887B689A853B681A887B68D2
:1005A0001A857A680F4B9A420FD07A680E4B9A429E
:1005B0000BD07A68124B9A4207D07A68114B9A4254
:1005C00003D07A68104B9A4204D13B681B7A1A46D2
:1005D0007B681A867B6801229A821437BD465DF8D3
:1005E000047B7047002C01400034014000040040AF
:1005F00000080040000C00400010004000140040C3
:1006000000400140004401400048014080B483B0F4
:1006100000AF78600B46FB70FB78002B08D07B683E
:100620001B889BB243F001039AB27B681A8007E0F3
:100630007B681B889BB223F001039AB27B681A8007
:100640000C37BD465DF8047B704700BF80B483B0B3
:1006500000AF786013460A467A807B707B78002B67
:1006600008D07B689B899AB27B8813439AB27B68D7
:100670009A8109E07B689B899AB27B88DB439BB2B5
:1006800013409AB27B689A810C37BD465DF8047BB3
:10069000704700BF80B485B000AF78600B467B80A8
:1006A0000023FB730023BB8100237B817B681B8AB3
:1006B0009AB27B881340BB817B689B899AB27B8806
:1006C00013407B81BB89002B05D07B89002B02D096
:1006D0000123FB7301E00023FB73FB7B18461437F7
:1006E000BD465DF8047B704780B483B000AF78608E
:1006F0000B467B807B88DB439AB27B681A820C377F
:10070000BD465DF8047B704780B584B000AF78606B
:100710007B681B783B2B18D87B685B783B2B14D805
:100720007B689B78172B10D8786801F029FDF8605A
:10073000012000F061F9F868FFF742FDFFF76EFD58
:10074000002000F059F9002300E00223184610377A
:10075000BD4680BD80B584B000AF786000F02CF855
:100760000346134AA2FB0312120C124901FB02F2C8
:100770009B1AFB60786801F08BFCB860BB68002BAB
:1007800010D0BA68FB681344BB60012000F034F954
:10079000B868FFF715FDFFF741FD002000F02CF9C8
:1007A000002300E0012318461037BD4680BD00BF7E
:1007B00007452EC28051010080B500AFFFF72EFD26
:1007C000FFF7E8FC0346184680BD00BF80B584B043
:1007D00000AF78603960FFF7EFFFF8603B68064ACA
:1007E00002FB03F3FA681344FB60F868796801F0D0
:1007F000E7FC1037BD4680BD8051010080B584B054
:1008000000AF7860FFF70AFDFFF7C4FCF860F868F6
:10081000796801F065FE1037BD4680BD80B500AF38
:10082000154B154A126842F001021A60124A124B27
:100830005968124B0B4053600F4A0F4B1B6823F053
:10084000847323F4803313600B4B0B4A126822F439
:1008500080221A60084B084A526822F4FE025A604D
:10086000054B4FF41F029A6000F00CF8044B4FF058
:1008700000629A6080BD00BF001002400000FFF8D7
:1008800000ED00E080B500AF00F002F880BD00BFD1
:1008900080B483B000AF00237B6000233B603A4B01
:1008A000394A126842F480321A60374B1B6803F4ED
:1008B00000333B607B6801337B603B68002B03D1D6
:1008C0007B68B3F5A06FF0D12F4B1B6803F40033A6
:1008D000002B02D001233B6001E000233B603B681A
:1008E000012B4BD1294B294A126842F010021A60A1
:1008F000264B264A126822F003021A60234B234A31
:10090000126842F002021A601F4B1F4A52685A6076
:100910001D4B1D4A52685A601B4B1B4A526842F4D9
:1009200080625A60184B184A526822F47C125A604E
:10093000154B154A526842F4A8125A60124B124ADB
:10094000126842F080721A6000BF0F4B1B6803F000
:100950000073002BF9D00C4B0B4A526822F00302B3
:100960005A60094B084A526842F002025A6000BFBE
:10097000054B5B6803F00C03082BF9D10C37BD461F
:100980005DF8047B704700BF001002400020024069
:1009900080B582B000AF114B7B60114B3B6007E02C
:1009A0003B681A1D3A607A68111D796012681A60F6
:1009B0003A680C4B9A42F3D30B480C494FF00002B3
:1009C0008842B8BF40F8042BFFF6FAAFFFF726FFC6
:1009D00000F04AFC0837BD4680BD00BFC85500087E
:1009E000000000201814002018140020701C0020A3
:1009F00080B400AFFEE700BF80B483B000AF034611
:100A0000FB71044BFA791A600C37BD465DF8047B24
:100A1000704700BF20000E4280B489B000AF7860FC
:100A200039600023FB6100233B610023BB6100238D
:100A3000FB6000237B610023BB603B68DB7803F035
:100A40000F03FB613B68DB7803F01003002B04D03D
:100A50003B689B78FA691343FB613B681B88DBB2F8
:100A6000002B44D07B681B687B610023BB6138E0AE
:100A7000BB69012202FA03F3FB603B681B881A463C
:100A8000FB6813403B613A69FB689A4226D1BB6917
:100A90009B00FB60FB680F2202FA03F3BB60BB689C
:100AA000DB437A6913407B61FB68FA6902FA03F35E
:100AB0007A6913437B613B68DB78282B05D1BB69DE
:100AC00001229A407B685A6108E03B68DB78482B3A
:100AD00004D1BB6901229A407B681A61BB6901336A
:100AE000BB61BB69072BC3D97B687A691A603B6815
:100AF0001B88FF2B46D97B685B687B610023BB6149
:100B00003AE0BB690833012202FA03F3FB603B6859
:100B10001B881A46FB6813403B613A69FB689A429E
:100B200027D1BB699B00FB60FB680F2202FA03F32D
:100B3000BB60BB68DB437A6913407B61FB68FA6981
:100B400002FA03F37A6913437B613B68DB78282B55
:100B500005D1BB69083301229A407B685A613B6822
:100B6000DB78482B05D1BB69083301229A407B68AA
:100B70001A61BB690133BB61BB69072BC1D97B68B3
:100B80007A695A602437BD465DF8047B704700BF20
:100B900080B485B000AF78600B467B800023FB7388
:100BA0007B689A687B881340002B02D00123FB737B
:100BB00001E00023FB73FB7B18461437BD465DF84C
:100BC000047B704780B485B000AF78600B467B80B3
:100BD0000023FB737B68DA687B881340002B02D00C
:100BE0000123FB7301E00023FB73FB7B18461437E2
:100BF000BD465DF8047B704780B483B000AF786079
:100C000013460A467A807B707B78002B03D07A8863
:100C10007B681A6102E07A887B685A610C37BD46AE
:100C20005DF8047B704700BF80B487B000AF786088
:100C30000B46FB7000233B610023FB6000237B61BC
:100C40000023BB607B68002B03DA2E4BDB697B61E2
:100C500002E02C4B5B687B617B6803F470231B0C08
:100C6000BB607B689BB23B617B6803F44013B3F5C8
:100C7000401F0AD17B6923F070637B61214B214ABD
:100C8000526822F070625A6021E07B6803F480139E
:100C9000002B0ED0BB68032202FA03F3FB60FB6853
:100CA000DB437A6913407B617B6943F070637B614E
:100CB0000DE07B685B0D1B013A6902FA03F3DB432D
:100CC0007A6913407B617B6943F070637B61FB78D9
:100CD000002B08D07B685B0D1B013A6902FA03F315
:100CE0007A6913437B617B68002B03DA054B7A69D1
:100CF000DA6102E0034B7A695A601C37BD465DF841
:100D0000047B70470000014090B484B000AF0246FD
:100D10000B46FA71BB710023FB60BB7903F0030340
:100D20009B000F2202FA03F3FB60154BBA7992087D
:100D3000D2B21349B8798008C0B2023051F820000D
:100D4000F968C9430140023243F822100C4BBA79CA
:100D50009208D2B20A49B8798008C0B2023051F87C
:100D60002000FC79B97901F00301890004FA01F14E
:100D70000143023243F822101037BD4690BC704741
:100D80000000014080B584B000AF0820012100F0D0
:100D9000DFFF4FF44073BB814823FB730223BB7317
:100DA00007F10C031A481946FFF736FE8023BB8172
:100DB0001023FB730223BB7307F10C03144819467D
:100DC000FFF72AFE01200921FFF79EFF4FF4007371
:100DD0007B6000233B720C237B720123BB723B1DA3
:100DE000184601F085F801200821FFF78DFF4FF428
:100DF00080737B6000233B720C237B720123BB72E8
:100E00003B1D184601F074F81037BD4680BD00BF89
:100E1000000C014080B582B000AF0920012100F034
:100E200097FF20480121FFF7FFFE4FF6FF73BB80BD
:100E30001023FB710223BB713B1D1B481946FFF7B2
:100E4000EBFD0420012100F083FF4FF6FF73BB8010
:100E50001023FB710223BB713B1D14481946FFF799
:100E6000DBFD1020012100F073FF1023FB71022332
:100E7000BB714FF40053BB803B1D0D481946FFF773
:100E8000CBFD0223BB803B1D07481946FFF7C4FD7D
:100E90000123BB803B1D04481946FFF7BDFD083701
:100EA000BD4680BD00023000000C0140000801403A
:100EB0000010014080B584B000AF0220012100F095
:100EC00065FF2E48FFF710FA40F2E733BB8040F28F
:100ED00017133B8100237B810023FB803B1D2748A8
:100EE0001946FFF717FB254801210122FFF7AEFB4A
:100EF00022480121FFF78AFB0120012100F046FF73
:100F00004FF08040FFF7F0F940F25533BB8040F2DC
:100F1000E7333B8100237B810023FB803B1D4FF0A7
:100F200080401946FFF7F6FA4FF080400121012278
:100F3000FFF78CFB4FF0804002210122FFF786FB78
:100F40000420012100F022FF0D48FFF7CDF94DF6F6
:100F5000BF23BB8040F2E7333B8100237B8100232A
:100F6000FB803B1D06481946FFF7D4FA04480121CF
:100F70000122FFF76BFB1037BD4680BD0004004027
:100F80000008004080B500AF4FF0C050012100F0D4
:100F9000FDFE042002F0B0F803461A4641F2342365
:100FA0009A4235D00120FFF727FD02F063F80420B4
:100FB00041F2342102F086F81D2002F065F8FFF7B7
:100FC000C9F8012000F082FE00BF412000F048FF78
:100FD0000346002BF9D04FF4807000F097FE0120FB
:100FE00000F0A6FEFFF72AF9FFF718F9012001210A
:100FF000FFF78CF8FFF712F947F6FB70FFF7F6F8EA
:10100000FFF70CF9FFF7B6F80020FFF7F5FC07E053
:10101000FFF714F901200121FFF778F8FFF7FEF838
:1010200000F058FF80BD00BF80B582B000AF4FF028
:101030000060002101F0D2FF4FF4C06001F05CFFBE
:101040001C233B7100237B710023BB710123FB71C7
:101050003B1D184601F062FF17233B7101237B7192
:101060000323BB710123FB713B1D184601F056FFA2
:101070001E233B7101237B710423BB710123FB7190
:101080003B1D184601F04AFF1D233B7101237B7174
:101090000523BB710123FB713B1D184601F03EFF88
:1010A00003233B7101237B710623BB710123FB7179
:1010B0003B1D184601F032FF0837BD4680BD00BF1A
:1010C00080B483B000AF03463960FB7197F90730F5
:1010D000002B0BDA0D49FB7903F00F03043B3A6850
:1010E000D2B21201D2B20B441A7609E0084997F93C
:1010F00007303A68D2B21201D2B20B4483F800230F
:101100000C37BD465DF8047B704700BF00ED00E082
:1011100000E100E080B582B000AF78607B68B3F199
:10112000807F01D3012311E00A4B7A6822F07F42CD
:10113000013A5A604FF0FF300F21FFF7C1FF054B16
:1011400000229A60034B07221A60002318460837D2
:10115000BD4680BD10E000E080B586B000AF78608D
:101160001F4B1A681F4BA3FB02139B097A6802FBF3
:1011700003F31B0E3B611A4B1A681A4BA3FB0213B5
:101180009B097A6802FB03F323F07F43FB60F86856
:10119000FFF7C0FF00BF144B1B6803F48033002B24
:1011A000F9D03B69002B14D00F4B6FF07F425A608F
:1011B00000237B6109E000BF0B4B1B6803F4803305
:1011C000002BF9D07B6901337B617A693B699A42D4
:1011D000F1D3054B00221A601837BD4680BD00BF11
:1011E00000000020D34D621010E000E080B582B016
:1011F00000AF78607A680F4B9A4201D90D4B7B6043
:101200000D4B1A680D4BA3FB02139B0C7A6802FB73
:1012100003F31846FFF77EFF00BF094B1B6803F47A
:101220008033002BF9D0064B00221A600837BD46E8
:1012300080BD00BF288E03000000002083DE1B431A
:1012400010E000E080B485B000AF78607B68FB60A0
:1012500000BFFB685A1EFA60002BFAD11437BD4656
:101260005DF8047B704700BFB0B58CB000AF514B48
:1012700007F108041D460FCD0FC495E8070084E868
:101280000700FFF7CBFAFFF7C5FDFFF713FEFFF7E7
:1012900079FDFFF777FEFFF7C7FE474B00221A7074
:1012A000464B00221A60464B00221A60454B012231
:1012B0001A6000F001FD012000F092FC01F050F9ED
:1012C00001F032FF03467B8501F05CF93E4B40F2B2
:1012D0000B221A803C4B32225A803B4800F094F893
:1012E0003A4B4FF4FA621A80384B32225A80384B0C
:1012F0004FF47A621A80364B64225A80354B4FF491
:10130000FA721A80334B4FF4FA725A8000F06AF87E
:101310000023FB6235E0304BFA6A33F81220BB1D24
:101320001046194602F04AF80346002B15D12B4B04
:10133000FA6A002103F82210FB88DAB22749FB6A17
:101340009B000B445A70FB881B0A9BB2DAB22349FC
:10135000FB6A9B000B449A7010E0204BFA6A002154
:1013600003F822101D4AFB6A9B00134400225A70A6
:101370001A4AFB6A9B00134400229A70FB6A0133ED
:10138000FB62FB6A062BC6DD00237B62144B9B7B52
:101390009B0007F13002134453F8282C074B1A60C6
:1013A000064B1B68184600F02DFC0A20FFF7D4FE00
:1013B000ECE700BF9C530008541400203C140020AC
:1013C000501400201C140020441400203414002069
:1013D000201400202814002014000020481C0020A5
:1013E0002C1C002080B500AF02E00520FFF7B4FE02
:1013F000044800F007FC0346002BF6D100F03EFC49
:1014000080BD00BF60F0FFFF80B584B000AF7860A2
:101410007B681B88002B38D04FF0804001210122CF
:10142000FFF714F97B681B881F4AB2FBF3F3FB60DC
:101430000123BB6005E0BB685B00BB60FB685B0829
:10144000FB60FB68B3F5803FF5D27B681B88012BFE
:1014500013D94FF08043BA6892B2013A92B21A851A
:101460004FF08043FA6892B2013A92B29A854FF0F7
:101470008043FA68520892B29A860C4B00229A84F2
:101480000A4B7A6852889A850AE00948802100222E
:10149000FFF7B2FB4FF0804001210022FFF7D6F8A2
:1014A0001037BD4680BD00BF007E560300080040D7
:1014B000000C014080B500AF4FF080400121FFF7E4
:1014C000A5F802480121FFF7A1F880BD00080040FF
:1014D00080B582B000AF786000F0BAF92B4B1B6882
:1014E000012B50DC7B681A78294BA3FB0213D90827
:1014F0000B469B000B445B00D31ADBB2012019465C
:1015000000F0C2F97B681A78214BA3FB0213DB08B9
:10151000DBB20320194600F0B7F97B685A781C4B00
:10152000A3FB0213D9080B469B000B445B00D31AA4
:10153000DBB20020194600F0A7F97B685A78144BFB
:10154000A3FB0213DB08DBB20420194600F09CF970
:101550007B689A780E4BA3FB0213D9080B469B00BD
:101560000B445B00D31ADBB20220194600F08CF961
:101570007B689A78064BA3FB0213DB08DBB20520DD
:10158000194600F081F90837BD4680BD401400209F
:10159000CDCCCCCC80B582B000AF7860124B1B684C
:1015A000002B1BD17B689A78104BA3FB0213D90840
:1015B0000B469B000B445B00D31ADBB2022019469A
:1015C00000F062F97B689A78084BA3FB0213DB08F2
:1015D000DBB20520194600F057F901E000F038F9B8
:1015E0000837BD4680BD00BF40140020CDCCCCCC18
:1015F00080B582B000AF7860124B1B68002B1BD106
:101600007B685A78104BA3FB0213D9080B469B004A
:101610000B445B00D31ADBB20020194600F034F90A
:101620007B685A78084BA3FB0213DB08DBB204206B
:10163000194600F029F901E000F00AF90837BD4623
:1016400080BD00BF40140020CDCCCCCC80B582B092
:1016500000AF7860074B1B68002B06D17B689B7B33
:101660000120194600F010F901E000F0F1F8083708
:10167000BD4680BD4014002080B582B000AF7860C8
:1016800003200F2100F000F900200F2100F0FCF8EA
:1016900004200F2100F0F8F8174B1B68002B06D12F
:1016A0007B68DB780120194600F0EEF821E0124B50
:1016B0001B68012B1BD17B689A78104BA3FB02138C
:1016C000D9080B469B000B445B00D31ADBB2022007
:1016D000194600F0D9F87B689A78084BA3FB0213EF
:1016E000DB08DBB20520194600F0CEF801E000F07F
:1016F000AFF80837BD4680BD40140020CDCCCCCC1F
:1017000080B582B000AF786003200F2100F0BCF8F4
:1017100002200F2100F0B8F805200F2100F0B4F8E6
:10172000174B1B68002B06D17B68DB78012019461C
:1017300000F0AAF821E0124B1B68012B1BD17B683B
:101740005A78104BA3FB0213D9080B469B000B449D
:101750005B00D31ADBB20020194600F095F87B68D5
:101760005A78084BA3FB0213DB08DBB204201946AE
:1017700000F08AF801E000F06BF80837BD4680BD44
:1017800040140020CDCCCCCC80B582B000AF7860C6
:1017900000F05EF82B4B1B68002B04D10120796808
:1017A00000F072F84AE0274B1B68012B21D1264A32
:1017B0007B689B0013445A78244BA3FB0213D9087F
:1017C0000B469B000B445B00D31ADBB2002019468A
:1017D00000F05AF81C4A7B689B0013445A781B4B54
:1017E000A3FB0213DB08DBB20420194600F04CF81F
:1017F00024E0144B1B68022B20D1134A7B689B000A
:1018000013449A78114BA3FB0213D9080B469B0093
:101810000B445B00D31ADBB20220194600F034F807
:10182000094A7B689B0013449A78084BA3FB021378
:10183000DB08DBB20520194600F026F80837BD4664
:1018400080BD00BF40140020481C0020CDCCCCCC73
:1018500080B500AF01200F2100F016F803200F2102
:1018600000F012F800200F2100F00EF804200F21E4
:1018700000F00AF802200F2100F006F805200F21E1
:1018800000F002F880BD00BF80B582B000AF786084
:1018900039607B68052B00F29F8101A252F823F08A
:1018A000B918000835190008B11900083D1A0008D8
:1018B000C91A0008551B0008C54801210122FFF77D
:1018C0009BF9C34802210122FFF796F9C048042181
:1018D0000122FFF791F9BE4808210122FFF78CF998
:1018E0003B6803F00103002B04D1B9480121002219
:1018F000FFF782F93B6803F00203002B04D1B448E0
:1019000002210022FFF778F93B6803F00403002B63
:1019100004D1AF4804210022FFF76EF93B6803F0C1
:101920000803002B05D1AA4808210022FFF764F91B
:1019300053E152E1A64810210122FFF75DF9A448C6
:1019400020210122FFF758F9A14840210122FFF789
:1019500053F99F4880210122FFF74EF93B6803F0BD
:101960000103002B04D19A4810210022FFF744F90B
:101970003B6803F00203002B04D19548202100228C
:10198000FFF73AF93B6803F00403002B04D19048B9
:1019900040210022FFF730F93B6803F00803002BD9
:1019A00005D18B4880210022FFF726F915E114E1CB
:1019B00088484FF480610122FFF71EF985484FF4F3
:1019C00000610122FFF718F982484FF4805101228B
:1019D000FFF712F97F484FF400510122FFF70CF98D
:1019E0003B6803F00103002B05D17A484FF4806176
:1019F0000022FFF701F93B6803F00203002B05D139
:101A000074484FF400610022FFF7F6F83B6803F0DA
:101A10000403002B05D16F484FF480510022FFF7DB
:101A2000EBF83B6803F00803002B06D169484FF43C
:101A300000510022FFF7E0F8CFE0CEE064484FF419
:101A400000710122FFF7D8F861484FF4807101223C
:101A5000FFF7D2F85F484FF480410122FFF7CCF83E
:101A60005C484FF400410122FFF7C6F83B6803F0E1
:101A70000103002B05D156484FF400710022FFF7F7
:101A8000BBF83B6803F00203002B05D150484FF42C
:101A900080710022FFF7B0F83B6803F00403002BCD
:101AA00005D14C484FF480410022FFF7A5F83B6870
:101AB00003F00803002B06D146484FF400410022F2
:101AC000FFF79AF889E088E041484FF480610122ED
:101AD000FFF792F83E484FF400610122FFF78CF8BF
:101AE0003B484FF480510122FFF786F838484FF405
:101AF00000410122FFF780F83B6803F00103002B4F
:101B000005D133484FF480610022FFF775F83B6838
:101B100003F00203002B05D12D484FF40061002291
:101B2000FFF76AF83B6803F00403002B05D128484F
:101B30004FF480510022FFF75FF83B6803F0080381
:101B4000002B06D122484FF400410022FFF754F841
:101B500043E042E01F4808210122FFF74DF81D48ED
:101B600010210122FFF748F81A4820210122FFF72F
:101B700043F8184840210122FFF73EF83B6803F084
:101B80000103002B04D1134808210022FFF734F889
:101B90003B6803F00203002B04D10E481021002201
:101BA000FFF72AF83B6803F00403002B04D109482F
:101BB00020210022FFF720F83B6803F00803002BE8
:101BC00005D1044840210022FFF716F805E004E0A3
:101BD00000080140000C014000BF0837BD4680BD31
:101BE00080B582B000AF0346FB71FB7904484FF427
:101BF00000511A46FFF700F80837BD4680BD00BF08
:101C00000010014080B584B000AF78607B685B0154
:101C1000184A82FB03129211DB17D31ABB60164BD2
:101C20001A68BB689A420CDA0120FFF7D9FF00F06E
:101C300031F8114B1B685A1C0F4B1A600123FB60D3
:101C400013E00D4B1A68BB689A420CDD0020FFF7C9
:101C5000C7FF00F01FF8084B1B685A1E064B1A609E
:101C60000123FB6001E00023FB60FB68184610378E
:101C7000BD4680BD1F85EB515014002080B400AFDD
:101C8000034B00221A60BD465DF8047B704700BF1D
:101C90005014002080B500AF064801210122FEF754
:101CA000ABFF0A20FFF7A2FA024801210022FEF74B
:101CB000A3FF80BD000C014080B500AF02480221A7
:101CC0000122FEF799FF80BD000C014080B483B073
:101CD00000AF0346FB710C4B00221A700A4B002226
:101CE0001A70FB79012B02D0042B04D007E0064BBD
:101CF00001221A7003E0044B05221A7000BF0C3752
:101D0000BD465DF8047B70472010024080B483B06C
:101D100000AF7860054B054A116A7A680A431A6277
:101D20000C37BD465DF8047B704700BF00100240D1
:101D300080B483B000AF0346FB71044BFA791A609C
:101D40000C37BD465DF8047B704700BF3C0442423F
:101D500080B483B000AF78600B46FB70FB78002B3B
:101D600006D0094B084A91697A680A439A6106E0ED
:101D7000054B054A91697A68D2430A409A610C374B
:101D8000BD465DF8047B70470010024080B483B00C
:101D900000AF78600B46FB70FB78002B06D0094B38
:101DA000084AD1697A680A43DA6106E0054B054AB8
:101DB000D1697A68D2430A40DA610C37BD465DF8D2
:101DC000047B70470010024080B483B000AF78609D
:101DD0000B46FB70FB78002B06D0094B084AD168F4
:101DE0007A680A43DA6006E0054B054AD1687A68EA
:101DF000D2430A40DA600C37BD465DF8047B704779
:101E00000010024080B483B000AF78600B46FB70D6
:101E1000FB78002B06D0094B084A11697A680A43FF
:101E20001A6106E0054B054A11697A68D2430A40F7
:101E30001A610C37BD465DF8047B70470010024004
:101E400080B483B000AF0346FB71044BFA791A608B
:101E50000C37BD465DF8047B704700BF400442422A
:101E600080B487B000AF0346FB710023FB60002302
:101E70007B610023FB74FB795B09DBB2FB60FB68D1
:101E8000012B03D1124B1B687B6109E0FB68022B1D
:101E900003D10F4B1B6A7B6102E00D4B5B6A7B61D8
:101EA000FB7903F01F03FB60FB687A6922FA03F3F6
:101EB00003F00103002B02D00123FB7401E0002397
:101EC000FB74FB7C18461C37BD465DF8047B7047ED
:101ED0000010024080B400AF044B044A526A42F042
:101EE00080725A62BD465DF8047B70470010024064
:101EF00080B485B000AF78600023FB60324BFB609C
:101F00007B689B79002B4DD02F4B2F4A11687A6844
:101F10001268D2430A401A602B4B2B4A51687A68E8
:101F20001268D2430A405A607B681B79FA681344EE
:101F3000FB60FB68FA6811687A6812680A431A60E5
:101F4000214B214A91687A681268D2430A409A600C
:101F50001D4B1D4AD1687A681268D2430A40DA6084
:101F60007B685B79102B0ED1174B174A91687A6802
:101F700012680A439A60144B134AD1687A6812684F
:101F80000A43DA601BE0104BFB607B685B79FA6800
:101F90001344FB60FB68FA6811687A6812680A43A8
:101FA0001A600CE07B681B79FA681344FB60FB68DD
:101FB000FA6811687A681268D2430A401A601437C6
:101FC000BD465DF8047B70470004014080B485B0D5
:101FD00000AF78600023FB730023BB600C4B1A68D2
:101FE0007B681340BB600A4B5A697B681340002B27
:101FF00005D0BB68002B02D00123FB7301E0002356
:10200000FB73FB7B18461437BD465DF8047B7047B5
:102010000004014080B483B000AF7860034B7A685D
:102020005A610C37BD465DF8047B704700040140DF
:1020300080B483B000AF78607A68144BA3FB0213BE
:10204000DB094FF4C87101FB03F3D31A002B01D154
:10205000012314E07A680D4BA3FB02135B09642192
:1020600001FB03F3D31A002B01D1002307E07B68A7
:1020700003F00303002B01D1012300E000231846E5
:102080000C37BD465DF8047B704700BF1F85EB51E0
:1020900080B586B000AF78607B681B7C7B617B6815
:1020A000DB7B3B617B69002B61D03B69002B5ED001
:1020B0007B690C2B5BD8304B7A6953F822203B6943
:1020C0009A420FD27B69022B51D13B691D2B4ED115
:1020D0007B685B7C03F5FA631846FFF7A9FF0346AC
:1020E000012B44D17B68DB7B3B6101237B6119E0E1
:1020F000214B7A6953F822303A6913443B617B697A
:10210000022B0CD17B685B7C03F5FA631846FFF762
:102110008FFF0346002B02D03B6901333B617B6993
:1021200001337B617B681B7C1A467B699A42DFD84E
:102130004FF4FA637B610BE07869FFF779FF0246A1
:102140003B69134403F26D133B617B6901337B618F
:102150007B685B7C03F5FA631A467B699A42EBD88D
:102160003B69064A02FB03F3FB60FB6800E00023C7
:1021700018461837BD4680BDB8530008805101008D
:1021800080B485B000AF78607B681B7819467B68A7
:102190005B781A4613461B019B1A9B00CA187B6882
:1021A0009B784FF4616101FB03F31344FB60FB6810
:1021B00018461437BD465DF8047B704700000000E8
:1021C00080B58AB000AF786039607A686A4BA3FB4B
:1021D00002131B0C694901FB03F3D31A7A68D31A63
:1021E0007B623B687A6A9A607A6A634BA3FB02134C
:1021F0001B0C7B627B6A991C614BA1FB0323C81AF1
:10220000400803449A081346DB009B1ACA1AD2B24C
:102210003B689A7300233B620EE03B6A03F5FA6366
:102220001846FFF705FF03467A6AD31AA3F26D1327
:102230007B623B6A01333B623B6A03F5FA631846F3
:10224000FFF7F6FE034603F26D127B6A9A42E4D36F
:102250003B6ADAB23B685A747B6A9BB201339AB22A
:102260003B689A810123FB61464BFA6953F822309F
:10227000BB61FB69022B0BD13B6A03F5FA6318467D
:10228000FFF7D6FE0346002B02D0BB690133BB61CA
:102290007A6ABB699A421FD800BFFB69DAB23B6811
:1022A0001A747B6ADAB23B68DA73FB697B617B691B
:1022B0000D3B7A6902FB03F31F33324AF96952F886
:1022C000212002FB03F35A423B68DB7BD31A9A1DA1
:1022D0007B690A2B0BD107E07A6ABB69D31A7B6250
:1022E000FB690133FB61BFE74FF0FF3300E00123DF
:1022F00003FB02F33B613B69002B1FDD3B69062BAF
:1023000003DD3B6802229A7443E03B689B7B591CC7
:102310001D4B81FB03230B449A10CB17D21A134693
:10232000DB009B1ACA1A3B699A4203DB3B68012215
:102330009A742EE03B6802229A742AE03B6913F1FA
:10234000060F03DA3B6801229A7422E03B689B7B0C
:10235000591C0D4B81FB03230B449A10CB17D21A47
:102360001346DB009B1ACA1A3B695B429A420DDB9B
:102370003B6802229A740CE007452EC2805101008E
:1023800025499224B8530008932449923B680122BE
:102390009A743B689B894B3B184602F061FC0246ED
:1023A0000B461046194646A3D3E9002302F0BEFCB3
:1023B00002460B461046194643A3D3E9002302F018
:1023C000B5FC02460B461046194641A3D3E900234B
:1023D00002F0D6FD02460B461046194601F0C0F940
:1023E00002460B46104619463BA3D3E9002302F0F0
:1023F0009DFC02460B461046194602F059FF034663
:10240000FB60F86802F0A4FF034603F56C438333D6
:102410003A68927C4FF4616101FB02F213441A4660
:102420003B685A603B689B89A3F58773184602F0A6
:1024300017FC02460B461046194621A3D3E9002398
:1024400002F074FC02460B46104619461EA3D3E95F
:10245000002302F06BFC02460B46104619461CA3F3
:10246000D3E9002302F08CFD02460B4610461946C4
:1024700001F076F902460B461046194616A3D3E939
:10248000002302F053FC02460B461046194602F0A8
:102490000FFF0346FB60F86802F05AFF034603F59E
:1024A00084423B689B7C4FF4616101FB03F313445E
:1024B0001A463B681A602837BD4680BDAFF30080DE
:1024C0003D0AD7A3703DFE3F9174B447FB210940FC
:1024D0000000000000D07640000000000090C040E6
:1024E00080B483B000AF786039607968194BA3FB82
:1024F00001235A0913461B019B1A9B00CA1AD2B228
:102500003B681A707A68134BA3FB02135909114BED
:10251000A3FB01235A0913461B019B1A9B00CA1AED
:10252000D2B23B685A707A680B4BA3FB0213D90AEC
:102530000A4BA3FB01231A0913465B001344DB007B
:10254000CA1AD2B23B689A700C37BD465DF8047B5C
:10255000704700BF89888888C5B3A291ABAAAAAA90
:1025600080B400AF044B054A5A60034B044A5A60DA
:10257000BD465DF8047B704700200240230167459B
:10258000AB89EFCD80B400AF044B044A126942F02E
:1025900080021A61BD465DF8047B7047002002404E
:1025A00080B584B000AF78600423FB734FF4302013
:1025B00000F082F80346FB73FB7B042B1BD1104B0E
:1025C0000F4A126942F002021A610D4B7A685A6191
:1025D0000B4B0B4A126942F040021A614FF4302053
:1025E00000F06AF80346FB73054A054B196941F68A
:1025F000FD730B401361FB7B18461037BD4680BD51
:102600000020024080B584B000AF78600B467B802C
:102610000423FB734FF4005000F04EF80346FB73A5
:10262000FB7B042B15D10D4B0C4A126942F00102C1
:102630001A617B687A881A804FF4005000F03CF8E9
:102640000346FB73054A054B196941F6FE730B40BF
:102650001361FB7B18461037BD4680BD0020024049
:1026600080B483B000AF0423FB71124BDB6803F02E
:102670000103002B02D00123FB7113E00D4BDB683B
:1026800003F00403002B02D00223FB710AE0094B84
:10269000DB6803F01003002B02D00323FB7101E081
:1026A0000423FB71FB7918460C37BD465DF8047BAB
:1026B000704700BF0020024080B584B000AF786052
:1026C0000423FB73FFF7CCFF0346FB7306E0FFF721
:1026D000C7FF0346FB737B68013B7B60FB7B012BE1
:1026E00002D17B68002BF2D17B68002B01D105233E
:1026F000FB73FB7B18461037BD4680BD80B400AF2E
:10270000BD465DF8047B704780B400AFBD465DF800
:10271000047B704780B400AFBD465DF8047B704712
:1027200080B400AFBD465DF8047B704780B582B0D1
:1027300000AF0120FDF79AFD0346002B7FD04148F2
:102740004FF40051FEF73EFA0346C3F10103DBB23A
:102750003C484FF400511A46FEF74EFA3A48FEF74D
:102760004DF83A480021FEF731F8384B9B7B384A48
:102770009B0013449B78002B40D0344B9B7B344A06
:102780009B0013445B78002B38D0324B1B68002B26
:1027900034DC314B1B68002B30DA2C4B9B7B2C4AF2
:1027A0009B0013449A78284B9B789A4226D1274B5A
:1027B0009B7B274A9B0013445A78234B5B789A42B1
:1027C0001CD1102000F042FC03465A1C214B1A6019
:1027D000224B01221A801F4B1A68214B53F82230DA
:1027E0001A88204B1A804FF4FA733B8001237B80B8
:1027F0003B461846FEF708FEFEF75CFE164B1B68CC
:10280000002B04DB144B1B685A1E134B1A60164B2B
:102810001B68002B05DD144B1B685A1E124B1A60F7
:102820000AE0114B1B68002B06D1104B00221A70D6
:102830000D4B4FF0FF321A600120FDF73FFD0837C6
:10284000BD4680BD00100140301400202C1C00202B
:10285000481C0020641C002058140020441C002048
:10286000D013002024000020681C002054140020F5
:1028700080B400AFBD465DF8047B704780B400AF04
:10288000BD465DF8047B704780B400AFBD465DF87F
:10289000047B704780B400AFBD465DF8047B704791
:1028A00080B400AFBD465DF8047B704780B400AFD4
:1028B000BD465DF8047B704780B400AFBD465DF84F
:1028C000047B704780B582B000AFA948FEF7BAFC20
:1028D0004FF40070FFF77AFB0346002B00F0918065
:1028E000A4484FF40071FEF753F90346002B40F063
:1028F0008380A14B1B78DBB2082B77D801A252F85A
:1029000023F000BF2929000831290008ED2900081B
:1029100039290008412900084929000851290008DF
:10292000A5290008AD290008934B01221A705EE02A
:10293000914B03221A705AE08F4B04221A7056E012
:102940008D4B00221A7052E08B4B06221A704EE01B
:102950008A4BDB78894A927889499B000B449A70AC
:10296000864BDB78854A527885499B000B445A7028
:10297000FFF7F6FD814BDB781A46824B33F81220C5
:102980007E4B9B781B0299B27C4B5B780B449BB2CD
:102990001046194600F05EFDFFF7F4FD764B00226D
:1029A0001A7024E0744B00221A7020E0764B1A78DB
:1029B000724BDA70744B1B78714A9B0013449A78FF
:1029C0006E4B9A70704B1B786D4A9B0013445A787B
:1029D0006A4B5A706D4B4FF0FF321A606C4B4FF0E0
:1029E000FF321A60644B05221A7000E000BF69488C
:1029F000FEF70AFDFEF75EFD4FF40070FFF70AFBDD
:102A0000DAE04FF48070FFF7E1FA0346002B00F0A4
:102A1000D38058484FF48071FEF7BAF80346002B74
:102A200040F0C680544B1B78DBB2082B00F2BA8012
:102A300001A252F823F000BF5D2A0008872A00088F
:102A4000A52B0008AF2A0008DD2A0008132B000878
:102A5000312B0008A52B00084F2B00084E4B9A7B0A
:102A6000494B1A70494B04221A604C4B1B68002BCF
:102A700005DD474B41221A60484B00221A603E4B4D
:102A800008221A708FE04648FDF7B8FE444B9B7849
:102A90000133DAB2424B9A70414B9B78172B02D923
:102AA0003F4B00229A703E48FDF72EFE7BE03C48EB
:102AB000FDF7A4FE3A4B00221A70394B5B780133C4
:102AC000DAB2374B5A70364B5B783B2B02D9344B1A
:102AD00000225A703248FDF717FE64E02E480021AC
:102AE000FDF774FE2C4BDB7B0133DAB22A4BDA7331
:102AF000294BDB7B072B02D9274B0122DA73264BAC
:102B000001221A74244B00225A742348FDF722FE36
:102B100049E01A4B9B780133DAB2184B9A70174B85
:102B20009B78172B03D9154B00229A703BE03AE0B3
:102B3000124B5B780133DAB2104B5A700F4B5B7853
:102B40003B2B03D90D4B00225A702CE02BE00E4B8F
:102B50001B780133DAB20C4B1A700B4B1B78062B27
:102B600002D9094B00221A70084B04221A601AE09D
:102B700018E60100000C0140541400206C1C0020D9
:102B8000481C002014000020431C0020681C00206A
:102B900058140020201400202C1C0020641C00204D
:102BA0003014002000BF0648FEF72EFCFEF782FC22
:102BB0004FF48070FFF72EFA0837BD4680BD00BF86
:102BC0003414002080B400AFBD465DF8047B70472C
:102BD00080B500AF05480121FDF75CFD0346002BE1
:102BE00003D002480121FDF77FFD80BD002C01408C
:102BF00080B400AFBD465DF8047B704780B400AF81
:102C0000BD465DF8047B704780B500AF4FF0804053
:102C10000121FDF73FFD0346002B0AD00E4880211D
:102C20000122FDF7E9FF4FF080400121FDF75CFD37
:102C300011E04FF080400221FDF72CFD0346002BF0
:102C400009D0054880210022FDF7D6FF4FF08040D3
:102C50000221FDF749FD80BD000C014080B500AFA9
:102C60002F480121FDF716FD0346002B56D04FF0EB
:102C700080434FF08042928E92B2622101FB02F1BA
:102C8000284AA2FB0102520992B29A86264B1B687F
:102C90005A1C254B1A60244B1B68022B02DD224B69
:102CA00000221A60214B1B78DBB2013B072B2DD889
:102CB00001A252F823F000BFD92C00080D2D000806
:102CC000E12C0008E92C0008F12C0008F92C000880
:102CD0000D2D0008012D00081548FEF75BFC19E0DA
:102CE0001348FEF785FC15E01248FEF7AFFC11E033
:102CF0001148FEF7C1FC0DE00F48FEF701FD09E0A9
:102D00000E4B1B781846FEF73FFD03E00848FEF720
:102D1000DFFB00BF02480121FDF7E6FC80BD00BFDC
:102D2000000400401F85EB51401400205414002083
:102D3000301400202C1C00206C1C0020431C0020A0
:102D400080B582B000AF30480121FDF7A3FC0346F7
:102D5000002B55D02D4B1B68002B16DC4FF080400C
:102D60000021FDF753FC4FF080400121FDF7BCFC32
:102D7000274880210022FDF73FFF23480021FDF76F
:102D800045FC214B00229A8436E0204B1A68214BE7
:102D900053F82220204B1B885B0013441B883B8088
:102DA0001E4B1A88194B19681A4B53F821101A4BED
:102DB0001B8801335B000B441B88B2FBF3F39BB20F
:102DC0007B803B461846FEF71FFB134B1B880233E4
:102DD0009AB2114B1A800D4B1A680E4B53F82220F1
:102DE0000D4B1B885B0013441A884FF6FF739A4201
:102DF00002D1064B00221A6003480121FDF774FC42
:102E00000837BD4680BD00BF00080040641C00209C
:102E1000000C0140D0130020441C0020240000209E
:102E200080B400AFBD465DF8047B704780B400AF4E
:102E3000BD465DF8047B704780B400AFBD465DF8C9
:102E4000047B704780B400AFBD465DF8047B7047DB
:102E500080B400AFBD465DF8047B704780B400AF1E
:102E6000BD465DF8047B704780B400AFBD465DF899
:102E7000047B704780B400AFBD465DF8047B7047AB
:102E800080B400AFBD465DF8047B704780B500AFED
:102E90004FF48060FFF79AF80346002B03D04FF4FD
:102EA0008060FFF7B7F84FF40060FFF78FF8034634
:102EB000002B03D04FF40060FFF7ACF84FF48050C4
:102EC000FFF784F80346002B03D04FF48050FFF740
:102ED000A1F880BD80B500AF0220FDF7C7F9034619
:102EE000002B02D00220FFF795F880BD80B400AF20
:102EF000BD465DF8047B704780B483B000AF786056
:102F0000054A7B6843F0BF6343F40033D3600C375A
:102F1000BD465DF8047B704700ED00E080B487B0EB
:102F200000AF786000237B6100233B610F23FB60CF
:102F30007B68DB78002B38D0264BDB68DB4303F45F
:102F4000E0631B0A7B617B69C3F104033B617B691E
:102F5000FA6822FA03F3FB607B685B781A463B69E8
:102F600002FA03F37B617B689B781A46FB68134087
:102F70007A6913437B617B691B017B6116497B681E
:102F80001B787A69D2B20B4483F80023124B7A681B
:102F900012785209D2B27968097801F01F01012034
:102FA00000FA01F143F822100EE00B4B7A68127818
:102FB0005209D2B27968097801F01F01012000FAA4
:102FC00001F1203243F822101C37BD465DF8047B26
:102FD000704700BF00ED00E000E100E080B483B086
:102FE00000AF78603960074A3B6823F0604323F004
:102FF0007F0379680B4393600C37BD465DF8047B13
:10300000704700BF00ED00E080B400AF0E4B1B889E
:103010001A4652021A44920013449BB203F55853C5
:1030200019339AB2084B1A80074B1B88DAB2064B49
:103030001B881B0A9BB2DBB21344DBB21846BD46A9
:103040005DF8047B704700BF1414002080B584B085
:1030500000AF0346FB71FFF7D7FF0346FB73FB7B13
:10306000FA7902FB03F31B12FB73FB7B1846103744
:10307000BD4680BD80B500AF0120FEF7E1FE002017
:10308000FEF7DEFE80BD00BF80B485B000AF034612
:10309000FB710023FB810A4B9B8DFB81FB8923F095
:1030A0007F03FB81FB799AB2FB891343FB81044BBD
:1030B000FA899A851437BD465DF8047B704700BFD6
:1030C000006C004080B485B000AF02460B46FA8029
:1030D000BB800023FB60074BFB60FA88FB6813444E
:1030E000FB60FB68BA881A601437BD465DF8047B44
:1030F000704700BF006C004080B485B000AF03464D
:10310000FB800023FB60074BFB60FA88FB681344DD
:10311000FB60FB681B889BB218461437BD465DF800
:10312000047B7047006C004080B584B000AF06237C
:103130007B8106233B810023FB810023FB8000234E
:10314000BB804FF6FF73BB81964B1B887B81964BF0
:103150001B883B817B894EF6EE62934238D04FF656
:10316000FF72934203D0002B00F0A5800BE13B8956
:10317000002B09D18B48FFF713FA03467B807B882D
:10318000042B24D07B8809E13A894EF6EE639A42FB
:1031900014D18448FFF704FA03467B807B88042B14
:1031A00001D07B88FAE080480021FFF72BFA034624
:1031B0007B807B88042B0AD07B88EFE000F06CF9E1
:1031C00003467B807B88042B01D07B88E6E0E4E02B
:1031D0003B89002B4BD10023FB8130E0734B1B88D4
:1031E0009AB2F989724B33F811309A4201D1FB89B6
:1031F000BB81FA89B7F90C309A421DD0FA896C4B21
:1032000033F8123018466B4900F0D8F80346BB80FB
:10321000BB88012B10D0FA89654B33F81220654B1F
:103220001B881046194600F0A5F90346FB80FB8871
:10323000042B01D0FB88B1E0FB890133FB81FB89C2
:10324000072BCBD957480021FFF7DCF903467B80D9
:103250007B88042B01D07B88A0E05348FFF7A0F9BE
:1032600003467B807B88042B24D07B8896E03A89B8
:103270004FF6FF739A4214D14B48FFF791F903467A
:103280007B807B88042B01D07B8887E04548002128
:10329000FFF7B8F903467B807B88042B0AD07B8834
:1032A0007CE000F0F9F803467B807B88042B01D09A
:1032B0007B8873E071E03B89002B08D100F0ECF8CB
:1032C00003467B807B88042B5CD07B8866E03A8950
:1032D0004FF6FF739A4209D13348FFF761F903466D
:1032E0007B807B88042B4DD07B8857E00023FB81BB
:1032F00030E0314B1B889AB2F9892D4B33F81130ED
:103300009A4201D1FB89BB81FA89B7F90C309A4204
:103310001DD0FA89264B33F812301846254900F0A3
:103320004DF80346BB80BB88012B10D0FA89204B97
:1033300033F812201F4B1B881046194600F01AF96B
:103340000346FB80FB88042B01D0FB8826E0FB8929
:103350000133FB81FB89072BCBD913480021FFF7F1
:1033600051F903467B807B88042B01D07B8815E0D4
:103370000C48FFF715F903467B807B88042B01D0AE
:103380007B880BE009E000F087F803467B807B88B0
:10339000042B01D07B8801E000BF042318461037BE
:1033A000BD4680BD00780008007C00080678000853
:1033B0001400002018140020067C000880B586B098
:1033C00000AF03463960FB800023FB8145F2555373
:1033D000BB810123FB821D4B3B611C4BBB6000206A
:1033E00000F082F80346FB81FB89AB2B01D1AB23B4
:1033F00027E0FB899B0203F1006303F5F043BB6008
:10340000FB8901339B021A46114B13443B6112E0C6
:103410003B691B88BB81BA89FB889A4208D13B690A
:10342000023B1B889AB23B681A800023FB8207E0AC
:103430003B69043B3B61BB689A1C3B699A42E7D3FA
:10344000FB8A18461837BD4680BD00BF0000010842
:10345000FE77000880B584B000AF02460B46FA80C4
:10346000BB800023FB81FA88BB881046194600F018
:1034700081F80346FB81FB89802B07D1FA88BB8842
:103480001046194600F0CEF80346FB81FB8918462A
:103490001037BD4680BD00BF80B582B000AF0423A9
:1034A000FB710F48FFF77CF80346FB71FB79042B97
:1034B00001D0FB7910E00A480021FFF7A3F803468A
:1034C000FB71FB79042B01D0FB7905E00548FFF780
:1034D00067F80346FB71FB7918460837BD4680BD87
:1034E00000780008007C000880B485B000AF034677
:1034F000FB710623FB810623BB811C4B1B88FB81D0
:103500001B4B1B88BB81FB79002B1BD0012B25D1CA
:10351000BB89002B08D1FA894EF6EE639A4201D19D
:1035200000231CE001231AE0FB89002B08D1BA8993
:103530004EF6EE639A4201D1012310E000230EE023
:10354000AB230CE0FB89002B01D1002307E0BB89F2
:10355000002B01D1012302E0AB2300E00023184639
:103560001437BD465DF8047B704700BF0078000843
:10357000007C000880B586B000AF02460B46FA809A
:10358000BB800423FB7400233B82234B7B61234BD2
:10359000FB600120FFF7A8FF03463B823B8AAB2B71
:1035A00001D1AB2334E03B8A9B0203F1006303F5B6
:1035B000F0437B613B8A01339B021A46184B13444C
:1035C000FB6020E07B691B68B3F1FF3F18D1BB882B
:1035D00078691946FFF716F80346FB74FB7C042B49
:1035E00002D0FB7C9BB213E07B699A1CFB881046DF
:1035F0001946FFF707F80346FB74FB7C9BB207E014
:103600007B6904337B617A69FB689A42DAD3802351
:1036100018461837BD4680BD00780008FF7B0008BB
:10362000FE77000880B588B000AF02460B46FA80EE
:10363000BB8004237B75444BFB61444BBB6100237F
:103640007B820023FB8200233B820023FB8100203E
:10365000FFF74AFF03467B827B8A012B04D13C4B58
:10366000FB613C4BBB6109E07B8A002B04D1394BE9
:10367000FB61374BBB6101E0AB2360E0F8694EF6BC
:10368000EE61FEF7BFFF03467B757B7D042B02D006
:103690007B7D9BB253E0FA88BB8810461946FFF742
:1036A00069FF03463B823B8A042B01D03B8A46E0FC
:1036B0000023FB8227E0FA8A274B33F81230FA887E
:1036C0009A421DD0FA8A244B33F812301846234907
:1036D000FFF774FE0346FB81FB89012B10D0FA8AA9
:1036E0001D4B33F812201D4B1B8810461946FFF75F
:1036F00041FF03463B823B8A042B01D03B8A1EE0FC
:10370000FB8A0133FB82FB8A072BD4D9B869FEF709
:1037100047FF03467B757B7D042B02D07B7D9BB2EC
:103720000DE0F8690021FEF76DFF03467B757B7D98
:10373000042B02D07B7D9BB201E07B7D9BB21846BF
:103740002037BD4680BD00BFFF030108000001080F
:1037500000780008007C00081400002018140020E5
:1037600070B5224E21F00044B44286B002460B46AA
:103770001ADD1F4DAC4203DD01F024F906B070BD27
:1037800002AA00F039F800F0030001281DD0022839
:1037900012D008B3DDE90201DDE9042300F04CFAA0
:1037A00001F1004106B070BD002300930022002308
:1037B00000F022FF06B070BD0124DDE90201DDE961
:1037C0000423009400F018FFEAE7DDE90201DDE9D7
:1037D000042300F031FAD1E70124DDE90201DDE93B
:1037E0000423009400F008FFC8E700BFFB21E93F75
:1037F000FFFFEF7F000000002DE9F04F964B21F016
:1038000000479F4291B004460D468B46904640F3D8
:103810008280924B9F4226DC002985A3D3E90023B6
:1038200040F3A08101F0CEF88D4B9F4204460D4637
:1038300000F0868080A3D3E9002301F0C3F802469C
:103840000B46C8E900232046294601F0BBF87AA3BD
:10385000D3E9002301F0B6F80126C8E90201304699
:1038600011B0BDE8F08F7F4B9F4240F386807E4BC6
:103870009F425BDC4FEA2759A9F21649A7EB09538F
:1038800019461F46064601F0EBFC01F0E9F9044633
:103890000D4622462B4630463946CDE90A4501F011
:1038A00091F80022714B01F041FA0F46064601F0F3
:1038B000D7FC01F0D5F904460D4622462B4630468A
:1038C0003946CDE90C4501F07DF80022674B01F047
:1038D0002DFA00220023CDE90E0101F08FFC002813
:1038E00000F06C81002320462946002201F086FC6E
:1038F000002814BF0123022302225D490092019196
:103900004A460AA8414600F0BFFABBF1000FC0F2D8
:103910004781064606E000220023C8E90045C8E9C1
:1039200002230026304611B0BDE8F08F02460B4658
:1039300001F048F80026C8E90201C8E90001F1E7F2
:103940003FA3D3E9002301F03DF83FA3D3E90023CF
:1039500004460D4601F036F802460B46C8E900233E
:103960002046294601F02EF837A3D3E9002301F0C1
:1039700029F80126C8E90201D4E700F0F5FE34A3D6
:10398000D3E9002304460D4601F0D0F90022394B5B
:1039900001F01AF801F064FC064601F061F924A375
:1039A000D3E90023CDE9060101F0C0F902460B4638
:1039B0002046294601F006F81FA3D3E90023CDE9EC
:1039C0000201DDE9060101F0B1F91F2ECDE9040184
:1039D000DDE9020152DC284B721E53F82230BB4253
:1039E0004CD0DDE9042300F0EDFF04460D46C8E9A4
:1039F000004522462B46DDE9020100F0E3FFDDE948
:103A0000042300F0DFFFBBF1000FC8E9020189DAEF
:103A1000274601F1004305F100447642C8F80070E2
:103A2000C8F80440C8F80800C8F80C307AE700BFAE
:103A300000004054FB21F93F3163621A61B4D03D6C
:103A40000000601A61B4D03D7370032E8A19A33B45
:103A500083C8C96D305FE43FFB21E93F7BD9024059
:103A6000FB21F93FFB213941FFFFEF7F000070414F
:103A70006C5400080000E03FEC530008DDE904232B
:103A800000F0A0FF3F15C1F30A53FB1A04460D4690
:103A9000102BC8E90045ACDD5DA3D3E90023DDE9C7
:103AA000060101F043F904460D4622462B46DDE9A6
:103AB000020100F087FFCDE90801DDE90823DDE917
:103AC000020100F07FFF22462B4600F07BFF52A34D
:103AD000D3E9002304460D46DDE9060101F026F98D
:103AE00022462B4600F06EFFCDE90401DDE90423F8
:103AF000DDE9080100F066FFC1F30A53FF1A04462E
:103B00000D46312FC8E9004578DD46A3D3E90023EF
:103B1000DDE9060101F00AF904460D4622462B466E
:103B2000DDE9080100F04EFFCDE90201DDE90223E5
:103B3000DDE9080100F046FF22462B4600F042FF77
:103B40003AA3D3E9002304460D46DDE9060101F05E
:103B5000EDF822462B4600F035FFCDE90401DDE902
:103B600002013EE700F030FF2D4B9F4204460D4618
:103B700026D025A3D3E9002300F026FF02460B46FA
:103B8000C8E900232046294600F01CFF1EA3D3E904
:103B9000002300F019FF4FF0FF36C8E90201C1E62B
:103BA000D8F80420D8F80C3002F1004203F10043A9
:103BB0004642C8F80420C8F80C30B3E603239BE65D
:103BC00013A3D3E9002300F0FFFE13A3D3E90023DE
:103BD00004460D4600F0F8FE02460B46C8E90023F5
:103BE0002046294600F0EEFE0BA3D3E9002300F0A7
:103BF000EBFE4FF0FF36C8E9020193E69DED087B2E
:103C00008DED027BF5E600BF3163621A61B4D03DF1
:103C10000000601A61B4D03D7370032E8A19A33B73
:103C2000FB21F93F0000002E8A19A33BC149202542
:103C30009A837B39AFF300802DE9F04F21F00049E2
:103C4000B9F1795F85B006460F4692469B466BDA1E
:103C500001F006FB002800F0EA8032463B46304681
:103C6000394601F063F874A3D3E9002304460D46F6
:103C700001F05CF872A3D3E9002300F0A5FE224610
:103C80002B4601F053F870A3D3E9002300F09AFE0D
:103C900022462B4601F04AF86DA3D3E9002300F039
:103CA00093FE22462B4601F041F86BA3D3E9002393
:103CB00000F088FE22462B4601F038F868A3D3E9CD
:103CC000002300F081FE22462B4601F02FF8CDE9BB
:103CD0000001204629460022654B01F027F8DDE966
:103CE0000023804689462046294601F01FF85246A7
:103CF00004460D465B463046394601F017F8024649
:103D00000B462046294600F05DFE02460B46404623
:103D1000494600F057FE02460B460020554900F088
:103D200051FE05B0BDE8F08F02460B4600F0FEFFE5
:103D300041A3D3E9002304460D4600F0F7FF40A35A
:103D4000D3E9002300F040FE22462B4600F0EEFFB0
:103D50003DA3D3E9002300F035FE22462B4600F0B8
:103D6000E5FF3BA3D3E9002300F02EFE22462B46BD
:103D700000F0DCFF38A3D3E9002300F023FE224645
:103D80002B4600F0D3FF36A3D3E9002300F01CFE3E
:103D90002B46224600F0CAFF374B9945CDE900017A
:103DA00097DD364B994539DCA9F500130022002038
:103DB00030499046994600F005FECDE902012046C3
:103DC000294600222A4B00F0B1FF42464B4600F044
:103DD000F9FDDDE90023804689462046294600F0AA
:103DE000A5FF524604460D465B463046394600F074
:103DF0009DFF02460B462046294600F0E3FD0246A1
:103E00000B464046494600F0DDFD02460B46DDE923
:103E1000020100F0D7FD05B0BDE8F08F9FED127BE9
:103E20004FF000088DED027BDFF85490C7E7114991
:103E3000002005B0BDE8F08FD43888BEE9FAA8BDEF
:103E4000C4B1B4BD9EEE213EAD529C804F7E923EE9
:103E50009015CB19A001FA3E7751C1166CC1563F9F
:103E60004C5555555555A53F000000000000E73F53
:103E70000000E03F0000F03F3233D33F0000E93F55
:103E80000000D23FAFF300802DE9F04FADF51B7D70
:103E90001B4CA49E1B4D54F826400A94D41E85FB4F
:103EA0000465E417C4EBA50424EAE4740C949B466F
:103EB0000490E34309910C980A990BF1FF3403EB4A
:103EC0004303069402EBC303061B641808931BD438
:103ED000A598344401340DF1880800EB86050027CD
:103EE00009E0E85900F0BCFE0136A642E8E802010C
:103EF00007F1040708D0002EF3DA00200021F3E7D1
:103F000074550008ABAAAA2A0A9C002C2BDB0A9C39
:103F100074AE22A806EBC40600EBCB0903960DF5A0
:103F2000E478069C002CC0F27081DDF810A04F46AA
:103F300000240025002677E90223FAE8020100F0B8
:103F4000F5FE02460B462046294600F03DFD0136AF
:103F50005E4504460D46EED1E8E80245039EB045B5
:103F600009F10809DDD10A9E03960EAC029404EB18
:103F700086040D94039E9AAB4FEAC6094B44002E6B
:103F800053E928452BDD0DF1340A72A989440AEB67
:103F9000860A0DF134080022A24B2046294600F083
:103FA000C5FE01F05DF900F05BFE00229E4B064667
:103FB0000F4600F0BBFE02460B462046294600F0A5
:103FC00001FD01F04DF979E9022348F8040F394663
:103FD000304600F0F9FCD04504460D46DBD12046C2
:103FE0002946089A00F054FC00224FF07F53044603
:103FF0000D4600F09BFE00F0BBFB00228B4B00F057
:1040000095FE02460B462046294600F0DBFC04469E
:104010000D4601F025F9804600F022FE02460B46CF
:104020002046294600F0CEFC089C002C06460F4690
:1040300040F3B980039C0EAA611E089C52F82130FF
:10404000C4F1180043FA00F2C4F1170502FA00F0B7
:104050000EAC1B1A44F82130904443FA05F5002DAC
:104060002BDD039C002C08F1010840F3D9800EAB36
:1040700003EB8400002453F8041BC1F1FF1202F586
:104080007F4214B9C1F1807211B143F8042C0124AC
:104090008342F0D1089800280DDD012800F0A480AB
:1040A000022808D103990EA84B1E50F82320C2F312
:1040B000150240F82320022D7DD0304639460022DB
:1040C000002301F09BF8002800F0B680039C0A9EB4
:1040D00004F1FF394E450DDC0EA800EB84030D986A
:1040E000002253F8041D834242EA0102F9D1002A5A
:1040F00040F03F820A9C0EAE621E56F82230002B22
:1041000040F0358206EB8202012352F8041D013390
:104110000029FAD0039C039E1C4406F1010AA24523
:104120000B943DDC0C9C0B9BDDF81890B046A59ED3
:10413000A044234472ACD14422A804EBCA0406EB89
:10414000830306EB880800EBC9090394079358F82A
:10415000040F00F085FD069E002EE9E802014FF0F5
:1041600000044FF0000514DBDDF810A04F460026D8
:1041700077E90223FAE8020100F0D8FD02460B4677
:104180002046294600F020FC01365E4504460D46D7
:10419000EED1039EE6E80245079C0396A045D6D1E2
:1041A0000B9E0396E6E629D1039C0EA8631E50F8E9
:1041B0002350ED1553E732463B4600201C4900F0E2
:1041C00001FC06460F46002C3FF477AF089A1849C9
:1041D000002000F05DFB02460B463046394600F0F9
:1041E000F1FB06460F4668E703990EA84B1E50F8F0
:1041F0002320C2F3160240F823205CE700220D4B77
:1042000001F01AF820B9054657E700240025A3E677
:10421000039C002C4FF0020508F101083FF727AF7F
:10422000002437E70000703E00007041000020408D
:104230000000F03F0000E03F3046089E06957242C5
:104240003946CDF81C8000F023FB0022B04B044619
:104250000D4600F0F1FF002800F0B7810022AD4BC1
:104260002046294600F062FD00F0FAFF064600F005
:10427000F7FC0022A64B00F059FD02460B462046F3
:10428000294600F09FFB00F0EBFF039C04F10109BD
:10429000089C18340EA90894039C41F8240041F8A6
:1042A0002960089A9C49002000F0F2FAB9F1000F49
:1042B00004460D4656DB09F101060EA872A90396C5
:1042C00000EB860701EBC60657F8040D00F0C8FCAA
:1042D00022462B4600F02AFD002266E902018D4BA2
:1042E0002046294600F022FD029A974204460D46D8
:1042F000EAD172AB03EBC90B0DF5947ACDF820909F
:10430000DDF82890CDF810A04FF00008B9F1000FAB
:10431000C0F22881DFF804A25F46002400250026B1
:1043200001E0464510DCF7E80223FAE8020100F05C
:10433000FDFC02460B462046294600F045FB0136AF
:10434000B14504460D46ECDA049E06EBC803C3E90A
:104350000045039C08F101084445ABF1080BD5D199
:10436000DDF82090A49E032E00F28C80DFE816F08A
:10437000D800910091000400B9F1000F40F31181C1
:104380000DF5947A4FEAC90B0AEB0B03D3E90067EA
:1043900009F101030AEBC303039398460DF5987CDA
:1043A00001E026462F4618ED047B324651EC170BF0
:1043B0003B46CDF804C08DED047B00F005FB0446C0
:1043C0000D4622462B46DDE9040100F0FBFA324699
:1043D0003B4600F0F9FA68E90201DDF804C0E04567
:1043E00048E90245DDD1B9F1010F40F30281DDF862
:1043F0000CC0CDF810A0D344DBE900450AF1100B46
:10440000E24601E034463D465AE9048922462B46FD
:104410004046494600F0D8FA06460F4632463B462B
:104420004046494600F0CEFA22462B4600F0CCFA30
:104430006AE90201DA454AE90267E3D1DDF810A032
:10444000039C0020002174E9022300F0BDFAA3457B
:10445000F9D1069C002C00F0AC80099EDAF80450DB
:10446000DAF80C40DAF80020DAF80830326005F1AA
:10447000004504F1004401F100427560F460B3604E
:1044800030617261079C04F007000DF51B7DBDE8EB
:10449000F08FB9F1000F4FF000004FF000010DF563
:1044A000947A09DB09F101040AEBC40474E90223DC
:1044B00000F08AFA5445F9D1069C0246002C54D0EB
:1044C00001F10043099EC6E9002302460B46DAE9E2
:1044D000000100F077FAB9F1000F08DD4CAC04EBF5
:1044E000C909F4E8022300F06FFA4C45F9D1069CA3
:1044F0000246002C73D0099E01F10043C6E9022355
:10450000079C04F007000DF51B7DBDE8F08F00BF90
:10451000000070410000703E0000F03F8855000828
:10452000B9F1000F4FF000004FF000010ADB09F174
:1045300001044AAD05EBC40474E9022300F044FA17
:10454000AC42F9D1069C0246002C4DD0099E01F1E7
:104550000043C6E90023079C04F007000DF51B7D0E
:10456000BDE8F08F00240025EEE60B46AAE7012304
:10457000D0E50EAE089C56F82930CDF81C80183CCA
:1045800006950894002B7FF48CAE06EB8903224637
:1045900053F8041D09F1FF39183A0029F8D00892A0
:1045A0007FE6069C002000210DF5947A002C7FF414
:1045B00054AFDAE90045DAE90223099EC6E90401AD
:1045C000C6E90045C6E902235CE72046294600F01B
:1045D00047FE0EAE039C46F82400A14661E6099E04
:1045E0000B46C6E902238BE7099E0B46C6E900236A
:1045F000B1E7002000212CE72DE9F04F21F0004623
:10460000B6F1795F85B004460D469046994604DAC6
:1046100000F026FE002800F0848022462B4620462B
:10462000294600F083FB22462B4606460F4600F043
:104630007DFB42A3D3E9002382468B4630463946B0
:1046400000F074FB3FA3D3E9002300F0BBF932462E
:104650003B4600F06BFB3DA3D3E9002300F0B4F927
:1046600032463B4600F062FB3AA3D3E9002300F058
:10467000A9F932463B4600F059FB38A3D3E90023A1
:1046800000F0A2F90E9BCDE90201002B33D0404689
:1046900049460022284B00F049FBDDE90223CDE921
:1046A00000015046594600F041FB02460B46DDE949
:1046B000000100F087F932463B4600F037FB4246E6
:1046C0004B4600F07FF91AA3D3E9002306460F46B4
:1046D0005046594600F02AFB02460B463046394602
:1046E00000F072F902460B462046294600F06AF9AE
:1046F00005B0BDE8F08FDDE902233046394600F011
:1047000015FB0BA3D3E9002300F05CF952465B468E
:1047100000F00CFB22462B4600F056F905B0BDE830
:10472000F08F2046294605B0BDE8F08FAFF300803A
:10473000495555555555C53F0000E03F7CD5CF5AEA
:104740003AD9E53DEB9C2B8AE6E55A3E7DFEB15712
:10475000E31DC73ED561C119A0012A3FA6F810117B
:104760001111813FAFF3008021F00041704700BF7D
:104770002DE9F84FC1F30A57A7F2FF36132E024670
:104780000B4604460D4689468A4680461CDC002EB0
:1047900040DB3D4F374107EA010C5CEA000C18D0C2
:1047A00037A3D3E9002300F00FF90022002300F023
:1047B0004DFD28B1002D42DB2AEA07094FF0000821
:1047C00040464946BDE8F88F332E06DDB6F5806FCA
:1047D00031D010461946BDE8F88FA7F2134C4FF0C0
:1047E000FF3B2BFA0CFB1BEA000FF2D024A3D3E90A
:1047F000002300F0E9F80022002300F027FD002844
:10480000DED0002D22DB28EA0B08D146404649467F
:10481000BDE8F88F1AA3D3E9002300F0D5F80022F1
:10482000002300F013FD0028CAD0002D1CDB4FF040
:104830000008C146C4E700F0C7F8BDE8F88F4FF4A0
:10484000801A4AFA06F606EB050AB5E7142E14D0CC
:10485000C7F586670123033703FA07F717EB040848
:1048600028BF05EB030ACEE725F00042074B2243A1
:1048700018BF99464FF00008A2E705F1010AC2E708
:104880009C7500883CE4377EFFFF0F000000F0BFFE
:10489000C1F30A532DE9F041904606460F460A46F9
:1048A0001BBB21F00043034334D03B4B002200F0FC
:1048B0003DFA3A4B984506460F463BDBC1F30A5397
:1048C000363B0A46434440F2FE718B4216DD3246C7
:1048D0003B462DA1D1E9000100F066F82AA3D3E9F7
:1048E000002300F023FABDE8F08140F2FF74A342F8
:1048F00027D0434440F2FE718B42E8DC002B0BDDF5
:1049000022F0FF4222F4E00242EA035730463946E1
:10491000BDE8F081BDE8F08113F1350F17DA4CF2F4
:104920005033984532463B4620DC19A1D1E90001BD
:1049300000F03AF816A3D3E9002300F0F7F9BDE838
:10494000F08102460B4600F03FF8BDE8F08122F00E
:10495000FF4222F4E002363342EA0357304639463A
:1049600000220F4B00F0E2F9BDE8F08106A1D1E989
:10497000000100F019F804A3D3E9002300F0D6F9F0
:10498000BDE8F081AFF300809C7500883CE4377E81
:1049900059F3F8C21F6EA50100005043B03CFFFF61
:1049A0000000903CAFF3008030B403F0004321F0EE
:1049B000004243EA020130BC704700BF81F0004171
:1049C00002E000BF83F0004330B54FEA41044FEAF4
:1049D000430594EA050F08BF90EA020F1FBF54EA8F
:1049E000000C55EA020C7FEA645C7FEA655C00F02B
:1049F000E2804FEA5454D4EB5555B8BF6D420CDDFC
:104A00002C4480EA020281EA030382EA000083EA7E
:104A1000010180EA020281EA0303362D88BF30BD1E
:104A200011F0004F4FEA01314FF4801C4CEA113174
:104A300002D0404261EB410113F0004F4FEA0333D3
:104A40004CEA133302D0524263EB430394EA050F5E
:104A500000F0A780A4F10104D5F1200E0DDB02FACD
:104A60000EFC22FA05F2801841F1000103FA0EF261
:104A7000801843FA05F359410EE0A5F120050EF127
:104A8000200E012A03FA0EFC28BF4CF0020C43FA58
:104A900005F3C01851EBE37101F0004507D54FF065
:104AA000000EDCF1000C7EEB00006EEB0101B1F5B5
:104AB000801F1BD3B1F5001F0CD349085FEA3000FB
:104AC0004FEA3C0C04F101044FEA445212F5800F06
:104AD00080F09A80BCF1004F08BF5FEA500C50F1A3
:104AE000000041EB045141EA050130BD5FEA4C0C86
:104AF000404141EB010111F4801FA4F10104E9D10F
:104B000091F0000F04BF01460020B1FA81F308BF05
:104B10002033A3F10B03B3F120020CDA0C3208DDD1
:104B200002F1140CC2F10C0201FA0CF021FA02F1AC
:104B30000CE002F11402D8BFC2F1200C01FA02F11C
:104B400020FA0CFCDCBF41EA0C019040E41AA2BF41
:104B500001EB0451294330BD6FEA04041F3C1CDA09
:104B60000C340EDC04F11404C4F1200220FA04F029
:104B700001FA02F340EA030021FA04F345EA0301D3
:104B800030BDC4F10C04C4F1200220FA02F001FA95
:104B900004F340EA0300294630BD21FA04F0294617
:104BA00030BD94F0000F83F4801306BF81F48011B0
:104BB0000134013D4EE77FEA645C18BF7FEA655C23
:104BC00029D094EA050F08BF90EA020F05D054EAF5
:104BD000000C04BF1946104630BD91EA030F1EBFFA
:104BE0000021002030BD5FEA545C05D140004941FE
:104BF00028BF41F0004130BD14F580043CBF01F5F1
:104C0000801130BD01F0004545F0FE4141F47001D6
:104C10004FF0000030BD7FEA645C1ABF19461046B1
:104C20007FEA655C1CBF0B46024650EA013406BFB2
:104C300052EA033591EA030F41F4002130BD00BF71
:104C400090F0000F04BF0021704730B54FF480642E
:104C500004F132044FF000054FF0000150E700BFAF
:104C600090F0000F04BF0021704730B54FF480640E
:104C700004F1320410F0004548BF40424FF00001FB
:104C80003EE700BF42004FEAE2014FEA31014FEA3E
:104C900002701FBF12F07F4393F07F4F81F060518D
:104CA000704792F0000F14BF93F07F4F704730B5FC
:104CB0004FF4607401F0004521F0004120E700BF8F
:104CC00050EA010208BF704730B54FF000050AE016
:104CD00050EA010208BF704730B511F0004502D517
:104CE000404261EB41014FF4806404F132045FEA19
:104CF000915C3FF4DCAE4FF003025FEADC0C18BFBE
:104D000003325FEADC0C18BF033202EBDC02C2F1B3
:104D1000200300FA03FC20FA02F001FA03FE40EA45
:104D20000E0021FA02F11444C1E600BF70B54FF045
:104D3000FF0C4CF4E06C1CEA11541DBF1CEA135527
:104D400094EA0C0F95EA0C0F00F0DEF82C4481EA8F
:104D5000030621EA4C5123EA4C5350EA013518BFAF
:104D600052EA033541F4801143F4801338D0A0FB9C
:104D700002CE4FF00005E1FB02E506F00042E0FB49
:104D800003E54FF00006E1FB03569CF0000F18BF4F
:104D90004EF0010EA4F1FF04B6F5007F64F54074F7
:104DA00004D25FEA4E0E6D4146EB060642EAC6218A
:104DB00041EA55514FEAC52040EA5E504FEACE2EF7
:104DC000B4F1FD0C88BFBCF5E06F1ED8BEF1004FFA
:104DD00008BF5FEA500E50F1000041EB045170BD76
:104DE00006F0004646EA010140EA020081EA0301BA
:104DF000B4EB5C04C2BFD4EB0C0541EA045170BDB6
:104E000041F480114FF0000E013C00F3AB8014F12F
:104E1000360FDEBF002001F0004170BDC4F1000478
:104E2000203C35DA0C341BDC04F11404C4F12005F9
:104E300000FA05F320FA04F001FA05F240EA020054
:104E400001F0004221F0004110EBD37021FA04F68A
:104E500042EB06015EEA430E08BF20EAD37070BD44
:104E6000C4F10C04C4F1200500FA04F320FA05F0A3
:104E700001FA04F240EA020001F0004110EBD370A5
:104E800041F100015EEA430E08BF20EAD37070BD15
:104E9000C4F1200500FA05F24EEA020E20FA04F3EE
:104EA00001FA05F243EA020321FA04F001F000419D
:104EB00021FA04F220EA020000EBD3705EEA430E0E
:104EC00008BF20EAD37070BD94F0000F0FD101F03D
:104ED0000046400041EB010111F4801F08BF013C76
:104EE000F7D041EA060195F0000F18BF704703F0B4
:104EF0000046520043EB030313F4801F08BF013D3B
:104F0000F7D043EA0603704794EA0C0F0CEA1355F6
:104F100018BF95EA0C0F0CD050EA410618BF52EAB0
:104F20004306D1D181EA030101F000414FF00000B6
:104F300070BD50EA410606BF1046194652EA4306C4
:104F400019D094EA0C0F02D150EA013613D195EA38
:104F50000C0F05D152EA03361CBF104619460AD180
:104F600081EA030101F0004141F0FE4141F470018A
:104F70004FF0000070BD41F0FE4141F4780170BD7A
:104F800070B54FF0FF0C4CF4E06C1CEA11541DBFDF
:104F90001CEA135594EA0C0F95EA0C0F00F0A7F8E1
:104FA000A4EB050481EA030E52EA03354FEA01310E
:104FB00000F088804FEA03334FF0805545EA131321
:104FC00043EA12634FEA022245EA111545EA1065E9
:104FD0004FEA00260EF000419D4208BF964244F180
:104FE000FD0404F5407402D25B084FEA3202B61A9F
:104FF00065EB03055B084FEA32024FF480104FF473
:10500000002CB6EB020E75EB030E22BFB61A7546E6
:1050100040EA0C005B084FEA3202B6EB020E75EB79
:10502000030E22BFB61A754640EA5C005B084FEAE1
:105030003202B6EB020E75EB030E22BFB61A7546AE
:1050400040EA9C005B084FEA3202B6EB020E75EBB9
:10505000030E22BFB61A754640EADC0055EA060E7A
:1050600018D04FEA051545EA16754FEA06164FEABD
:10507000C30343EA52734FEAC2025FEA1C1CC0D169
:1050800011F4801F0BD141EA00014FF000004FF0F6
:10509000004CB6E711F4801F04BF01430020B4F1B7
:1050A000FD0C88BFBCF5E06F3FF6AFAEB5EB030C6F
:1050B00004BFB6EB020C5FEA500C50F1000041EB6C
:1050C000045170BD0EF0004E4EEA113114EB5C0439
:1050D000C2BFD4EB0C0541EA045170BD41F480110C
:1050E0004FF0000E013C90E645EA060E8DE60CEA14
:1050F000135594EA0C0F08BF95EA0C0F3FF43BAF31
:1051000094EA0C0F0AD150EA01347FF434AF95EAE7
:105110000C0F7FF425AF104619462CE795EA0C0FCB
:1051200006D152EA03353FF4FDAE1046194622E798
:1051300050EA410618BF52EA43067FF4C5AE50EA72
:1051400041047FF40DAF52EA43057FF4EBAE12E762
:105150004FF0FF3C06E000BF4FF0010C02E000BF43
:105160004FF0010C4DF804CD4FEA410C7FEA6C5C26
:105170004FEA430C18BF7FEA6C5C1BD001B050EAC9
:10518000410C0CBF52EA430C91EA030F02BF90EAB4
:10519000020F0020704710F1000F91EA030F58BF73
:1051A000994208BF90422CBFD8176FEAE37040F0D5
:1051B000010070474FEA410C7FEA6C5C02D150EA73
:1051C000013C07D14FEA430C7FEA6C5CD6D152EA2E
:1051D000033CD3D05DF8040B704700BF84461046F3
:1051E00062468C461946634600E000BF01B5FFF7F2
:1051F000B7FF002848BF10F1000F01BD4DF808EDC2
:10520000FFF7F4FF0CBF012000205DF808FB00BF92
:105210004DF808EDFFF7EAFF34BF012000205DF8EC
:1052200008FB00BF4DF808EDFFF7E0FF94BF012039
:1052300000205DF808FB00BF4DF808EDFFF7CEFF3A
:1052400094BF012000205DF808FB00BF4DF808ED79
:10525000FFF7C4FF34BF012000205DF808FB00BF4A
:105260004FEA410212F5001215D211D56FF478738E
:10527000B3EB625212D94FEAC12343F0004343EA31
:10528000505311F0004F23FA02F018BF404270470C
:105290004FF00000704750EA013005D111F0004096
:1052A00008BF6FF0004070474FF00000704700BF2C
:1052B0004FEA4102B2F1E04324BFB3F5001CDCF138
:1052C000FE5C0DD901F0004C4FEAC0024CEA507070
:1052D000B2F1004F40EB830008BF20F0010070479F
:1052E00011F0804F21D113F13872BCBF01F00040A2
:1052F000704741F480114FEA5252C2F11802C2F1D4
:10530000200C10FA0CF320FA02F018BF40F0010054
:105310004FEAC1234FEAD32303FA0CFC40EA0C0006
:1053200023FA02F34FEA4303CCE77FEA625307D143
:1053300050EA01331EBF4FF0FE4040F4400070477A
:1053400001F0004040F0FE4040F40000704700BF14
:105350004FEA4002B2F1FE4F0FD34FF09E03B3EB82
:1053600012620DD94FEA002343F0004310F0004FC2
:1053700023FA02F018BF404270474FF00000704718
:1053800012F1610F01D1420205D110F0004008BFB7
:105390006FF0004070474FF00000704700000000C1
:1053A000C201000084030000730500003A070000FA
:1053B00006090000E10A0000000000001F000000D4
:1053C0001C0000001F0000001E0000001F00000065
:1053D0001E0000001F0000001F0000001E00000053
:1053E0001F0000001E0000001F000000FB21F93F0D
:1053F000FB2109407CD91240FB2119407A6A1F40E9
:105400007CD92240BBFD2540FB2129403A462C4057
:105410007A6A2F405C4731407CD932409C6B3440E3
:10542000BBFD3540DB8F3740FB2139401BB43A4090
:105430003A463C405AD83D407A6A3F404C7E404014
:105440005C4741406C1042407CD942408CA24340B2
:105450009C6B4440AC344540BBFD4540CBC6464008
:10546000DB8F4740EB584840FB21494083F9A200BD
:10547000444E6E00FC291500D1572700DD34F5009D
:1054800062DBC0003C999500419043006351FE00EF
:10549000BBDEAB00B761C5003A6E2400D24D4200BE
:1054A0004906E00009EA2E001C92D100EB1DFE0027
:1054B00029B11C00E83EA700F535820044BB2E0050
:1054C0009CE98400B4267000417E5F00D6913900CB
:1054D000538339009CF439008B5F840028F9BD00A8
:1054E000F81F3B00DEFF97000F980500112FEF001B
:1054F0000A5A8B006D1F6D00CF7E360009CB270046
:10550000464FB7009E663F002DEA5F00BA27750040
:10551000E5EBC7003D7BF100F739070092528A00A6
:10552000FB6BEA001FB15F00085D8D003003560081
:105530007BFC4600F0AB6B0020BCCF0036F49A0039
:10554000E3A91D005E619100081BE60085996500D6
:10555000A0145F008D40680080D8FF0027734D00C5
:1055600006063100CA561500C9A873007BE2600028
:105570006B8CC0000200000003000000040000006B
:10558000060000000000000000000040FB21F93F81
:10559000000000002D44743E000000809846F83C56
:1055A0000000006051CC783B00000080831BF03984
:1055B0000000004020257A38000000802282E33677
:0855C000000000001DF3693535
:1055C800007E5603000000000000000001020304F2
:1055D80006070809E803E903EA03EB03EC03ED0314
:1055E800EE030000D0070000D007930208006E0207
:1055F8000800930208006E02080093020800EE01FA
:1056080008004B0208000B020800B8010400010062
:105618000800060108004A010800B8010800EE0168
:105628000400010008004A0108009F010800EE017B
:1056380008000B020400010008004A010800930258
:1056480008006E020800930208006E020800930228
:105658000800EE0108004B0208000B020800B80120
:10566800040001000800060108004A010800B8010A
:105678000800EE010400010008004A0108000B02BE
:105688000800EE010800B8010200FFFF1405B80188
:105698000200B80110000B0204000B020400B8015C
:1056A8000800880108004A0108004A01080088012A
:1056B800080088010800B80108008801080088016E
:1056C80008004A0108002601080006010800060132
:1056D8000400060108004A0108004A010800880180
:1056E8000800B8010800880108000B020400010046
:1056F800040088010800B8010800EE0108000B0248
:1057080004000B020400B8010800880108004A01DF
:1057180008004A0108008801080088010800B8014B
:10572800080088010800880108004A0108002601CD
:1057380008000601080088010400880108008801A3
:105748000800EE0108004B020800EE010800B8014D
:105758000800880104000100040000000800880116
:105768000800B8010800EE0108000B0204000B0253
:1057780004000B0204000B0204000B0204000B02DD
:105788000400B8010800880108004A010800060161
:1057980008005D0104005D0104005D0104005D0175
:1057A8000400B80104000B0208004B0208006E0256
:1057B80008000B02040001000800930208006E02B2
:1057C8000800930208006E02080093020800100304
:1057D8000400010008009302080010030800930267
:1057E80004000B02040088010400700308009302FF
:1057F80004000B0208004B0204000B020400010025
:105808000200FFFFDC05880104008801040026016E
:1058180004005D0104004A010800060103000100BC
:10582800040001000800000002000B0204000B0243
:1058380004005D010400B8010400B8010800060175
:10584800040001000800000002000B0204000B0223
:1058580004005D010400B8010400B80108008801D3
:10586800040001000800010004004A010400880146
:105878000400260104005D0104004A0108008801B3
:10588800040001000800010004000B0204000B02E0
:1058980004005D010400B8010400B8010800880193
:1058A800040001000800010004004A010400880106
:1058B8000400260104005D0104004A0108000601F5
:1058C80004000100080001000400060108000601A8
:1058D80008000601080006010800060108004A0140
:1058E8000800880108004A0108005D0108005D0100
:1058F80008005D0108005D0108005D010800B801AD
:1059080008000B020800B80108000601080006019B
:1059180008000601080006010800060108004A01FF
:105928000800880108004A010800880108005D0194
:1059380008004A01080026010800060104000601C3
:105948000400060108000601080006010800060117
:105958000800060108004A010800880108004A01F9
:1059680008005D0108005D0108005D0108005D0197
:1059780008005D010800B80108000B020800B80122
:1059880008000601080006010800060108000601D3
:105998000800060108004A010800880108004A01B9
:1059A8000800880108005D0108004A010800260176
:1059B80008000601040006010400C4000800C40031
:1059C8000800C4000800C4000800C4000800F7006C
:1059D800080026010800F700080006010800060173
:1059E80008000601080006010800060108004A012F
:1059F800080088010800C4000800C4000800C400AA
:105A08000800C4000800C4000800F70008002601C8
:105A18000800F70008008801080088010800B8019C
:105A28000800EE0108000B0204000B02040001004C
:105A38000100FFFFD00706010100260101004A010D
:105A4800010006010100260101004A0101000601CA
:105A5800010026010100FFFFD007B80104008801FA
:105A680008005D01080088010800B8010800060167
:105A7800040001000800B8010800880108005D0161
:105A8800080088010800B801080026010400010088
:105A98000800B8010800B8010800D20108000B028C
:105AA8000800D2010800B801080088010200B80106
:105AB8000400880104005D0104004A010800260171
:105AC80008004A0108005D010800DC00040001002C
